:020000041000EA
:10000000002008205D0100101301001015010010F0
:100010001101001011010010110100101101001058
:100020001101001011010010110100101701001042
:100030001101001011010010190100101B01001026
:100040001D0100101D0100101D0100101D010010F8
:100050001D0100101D0100101D0100101D010010E8
:100060001D0100101D0100101D0100101D010010D8
:100070001D0100101D0100101D0100101D010010C8
:100080001D0100101D0100101D0100101D010010B8
:100090001D0100101D0100101D0100101D010010A8
:1000A0001D0100101D0100101D0100101D01001098
:1000B0001D0100101D0100101D0100101D01001088
:1000C0001D0100101D0100101D0100101D01001078
:1000D0001D0100101D0100101D0100101D01001068
:1000E0001D0100101D0100101D0100101D01001058
:1000F0001D0100101D0100101D0100101D01001048
:100100001D0100101D0100101D0100101D01001037
:1001100000BE00BE00BE00BE00BE00BEEFF3058004
:10012000103800BEF2EB88713C1600105C1600100F
:10013000A801001090A31AE7D3DEFFFF42012110AF
:10014000FF01000068160000793512AB4FF0000087
:100150002049086006C881F3088810474FF05040D6
:10016000006810B14FF00000F2E70FA40ECC002998
:1001700002D000F015F8F9E71749184A002000E00E
:1001800001C19142FCD1002080F30A8814498847BC
:10019000144988471449884700BEFDE701C901C2D8
:1001A0009A42FBD3704700BF5C160010100100207C
:1001B00054020020A01700100000082000000820B2
:1001C000A0170010001008200010082000000000F8
:1001D0007047000008ED00E0540200206C0400208D
:1001E0000111001075020010F9100010F8B500BFE1
:1001F000064B0749C91A891048BF0131491003D07D
:10020000044B0BB101481847704700BF540200204F
:10021000540200200000000008B5054B1BB1054941
:100220000548AFF30080BDE80840FFF7E1BF00BF1D
:1002300000000000300400202C15001010B50B2029
:1002400000F080F84FF001040B2344EC44300C2004
:1002500000F078F80C2344EC44300D2000F072F8E4
:100260000D2344EC4430152000F06CF8152344ECC9
:10027000443010BD80B5FFF7E1FF4FF001084FF0AB
:1002800000040B2748EC40700C2644EC40600D2520
:1002900044EC40504FF47A7000F080FC44EC407025
:1002A00044EC406044EC40504FF47A7000F076FC2F
:1002B00044EC407048EC406044EC40504FF47A709D
:1002C00000F06CFC44EC407044EC406044EC405066
:1002D0004FF47A7000F062FC44EC407044EC4060F3
:1002E00048EC40504FF47A7000F058FC44EC4070F9
:1002F00044EC406044EC40504FF47A7000F04EFC07
:1003000048EC407048EC406048EC40504FF47A7044
:1003100000F044FC44EC407044EC406044EC40503D
:100320004FF47A7000F03AFC152548EC40504FF439
:10033000FA6000F033FC44EC40504FF47A7000F067
:100340002DFC9EE730B44FF0000343EC440043EC37
:10035000400005254FF480740B4BC20053F8201069
:1003600003EB800081F0400102F1804303F520336C
:1003700001F0C00200F5805100F540500A605D6058
:10038000046030BC704700BF048003400FB400B568
:1003900083B0049C074800F0D9FF3CB105A9204672
:1003A000019100F08FFE044800F0D0FF012000F022
:1003B000A1FE00BF2C1500103C15001070B586463C
:1003C000EFF3108572B6124CD4E8CF6F0120002EE7
:1003D000FAD1C4E8460F002EF6D1BFF35F8F4FF07D
:1003E000010CC80801F007030CFA03F31EF800C063
:1003F0001CEA030608D14CEA030C0EF800C0C4E85E
:100400008F6F85F3108870BD1046FFF7BFFF00BFE8
:10041000E3030020044A1078431CDBB2182B28BFEA
:1004200010231370704700BF300200204FF0E0220D
:10043000936843F000539360704700BF0021044B62
:1004400003F12002C3E88F1F01339342FAD17047B2
:10045000D80300204FF0E0234FF08032C3F800248F
:10046000C3F80424C3F80824C3F80C24C3F81024E8
:10047000C3F81424C3F81824C3F81C24C3F8202498
:10048000C3F82424C3F82824C3F82C24C3F8302448
:10049000704700BF012300F01F029340400941B1A3
:1004A000800000F1604000F56140C0F880310360D9
:1004B0007047024A203042F82030704700E100E0E7
:1004C000F8B50D46EFF3108772B6124ED6E8CF2F6F
:1004D0000123002AFAD1C6E8423F002AF6D1BFF331
:1004E0005F8F0D4B00F110049B680C4A53F82430C9
:1004F000934203D0994201D000F0F0FC064B9B6878
:1005000043F82450BFF35F8F0023C6E88F3F87F383
:100510001088F8BDE103002000ED00E01D0100108F
:10052000014B0B4403607047D803002070B5104C9A
:10053000104DAC420ED2FF26236863B1FFF76AFF6D
:1005400001462046FFF7ECFFA680BFF35F8F08341B
:10055000AC42F1D370BDFFF75DFF01462046FFF7C7
:10056000DFFF2671BFF35F8F0834AC42E4D370BD68
:100570004C020020540200200D4B1A68EFF310814A
:1005800072B6D2E8CFCF0120BCF1000FF9D1C2E89A
:100590004C0FBCF1000FF4D1BFF35F8F00221B683A
:1005A000C3E88F2F81F3108840BF002000217047DF
:1005B00068040020000000002DE9F04F2DED028BB3
:1005C00085B0EFF30583DBB2103B9A0818BF012218
:1005D0004FF0010103F0030018BFAB4DAB4B08BF58
:1005E000AB4D00EB820201FA00FB53F8226005F5E7
:1005F00041539FEDA38B0190C3F804B0CDF800B038
:100600002AE0B388180440F18C80B379002B40F0C5
:10061000D580B6F908100029C0F21581736901EB85
:10062000410103EBC103D3E90247B7F1FF3F08BF24
:10063000B4F1FF3F09D0019B05EB8301AB6A0A6966
:10064000D21AE31A934238BF0C61284600F026FB09
:10065000A042B941C0F2F780B6F90840009B002CD7
:10066000EB63CEDBD6F8149004EB440A284609EB82
:10067000CA07D7E902B800F011FB584571EB080131
:10068000BFDBB8F1000FC0F2C180D7E90431814A65
:10069000934200F0EA807A88B6F9080092B242EA02
:1006A0000040984702460B4652EA030100F0AE8034
:1006B000002B80F2CE80BBEB020B68EB030839F90C
:1006C0003A30C7E902B8002B9BDB716903EB4302A8
:1006D00001EBC202D2E90270BB4578EB000C4FEA95
:1006E00043028EDBB4462CF8083F0BE031F9323080
:1006F000F446002B0DDB03EB430001EBC0005A0076
:10070000D0E90270BB451A4478EB000001EBC20E41
:10071000ECDA29F83A30ACF80040B38818043FF519
:1007200074AF3369EFF3108272B6D3E8CF0F0121B3
:100730000028FAD1C3E8401F0028F6D1BFF35F8F2D
:100740004FF6FF74B0880023316900B2B480C1E86D
:100750008F3F82F310889842FFF657AF0746A946AD
:10076000746906F1080807EB470E04EBCE03D3E9E2
:100770000250B6F90830C446002BA8BFB34605DACC
:100780000FE034F93A309446002B09DB03EB430ABF
:1007900004EBCA02D2E90261B54270EB0101F0DA62
:1007A0005E46ACF8007034F93E7024F83E30002FFD
:1007B000D9DAB3794D46002B3FF42BAF0023B37148
:1007C000B6F9083006F10808591C3CD0194677697B
:1007D00003E080465A1C3FF41EAF03EB430207EBD5
:1007E000C200B0F802C01C461CF4004F9E4637F908
:1007F0003230EED08C4280ED028B05D0A8F800306C
:10080000318927F8321034817146E3E739F83A30FC
:1008100033813369EFF3108272B6D3E8CF0F012131
:100820000028FAD1C3E8401F0028F6D1BFF35F8F3C
:100830007388316929F83A3000237480C1E88F3F0A
:1008400082F31088DDE640BF05B0BDEC028BBDE849
:10085000F08F2846CDE9022300F020FA029A039B8C
:1008600010EB020B43EB010829E708460B690291E4
:1008700098470028CAD00299D1E9002314E700BFA5
:10088000FFFFFFFFFFFFFFFF00800B404804002039
:1008900000000B40B90500102DE9F84F364C2569D2
:1008A0002DB1BDE8F84F0A213448FFF739BEDFF813
:1008B000E4800321404600F0DFF90326C4F80C80F1
:1008C000FFF7A8FD4FF0504C2D4B267003442361D9
:1008D000DCF800300F216370636961801D834FF085
:1008E0000405A3F878504FF00505A3F890504FF099
:1008F0000605A3F8A8504FF007050E214FF6FF722A
:1009000008274FF00A0EA3F8C0504FF001094FF02E
:100910000C0C4FF0020B4FF0090A0D204FF00B05A5
:10092000A3F868111749A280A3F808E1A160A3F811
:1009300048B0A3F8F0A0A3F82051A3F838C1A3F859
:100940005001A3F83090A3F86060A3F8D8701A8023
:100950000D4B3046C8F820700C49DC60FFF7B0FD45
:1009600049463046FFF796FD094B0A211F640348AC
:10097000BDE8F84FFFF7D4BD340200206804002022
:10098000D8030020FFFF100048040020B905001024
:1009900000200B4000000B400146F0B50069EFF36A
:1009A000108772B6D0E8CF5F0124002DFAD1C0E8DD
:1009B000454F002DF6D1BFF35F8FB1F902E04C69CE
:1009C0000EEB4E0CBEF1000F4FEACC0504EBCC0C45
:1009D0003DDB605B002648800869C0E88F6F87F3C5
:1009E0001088BCF80200CCE902230130C0F30E00ED
:1009F000012838BF0120059BACF80200CCF810306C
:100A0000069B40EA0E40CCF814300B69EFF31082DD
:100A100072B6D3E8CFCF0127BCF1000FF9D1C3E8FC
:100A20004C7FBCF1000FF4D1BFF35F8F8B88635311
:100A3000A1F804E00B69C3E88F6F82F310880122EC
:100A4000CB68097803F501538A405A60F0BD002352
:100A50000A69C2E88F3F87F310884FF0FF30F0BD7E
:100A600003464089B0EB214F37DD58690A1402EB89
:100A7000420210B500EBC2001C69EFF3108C72B695
:100A8000D4E8CFEF0122BEF1000FF9D1C4E84E2F18
:100A9000BEF1000FF4D1BFF35F8F428889B292B2EA
:100AA0008A4207D000221B69C3E88F2F8CF310887D
:100AB000002010BD42F4004242800121002218694A
:100AC0009971C0E88F2F8CF310881C78DA6808467B
:100AD00002F50153A140596010BD0020704700BFCE
:100AE0002DE9F041861F41F1FF35B04271EB05035E
:100AF00038BF002682B038BF354604460F4600F0A6
:100B0000D5F8301A65EB0103012873F1000306DA0A
:100B10002046394602B0BDE8F04100F0D1B800F0FF
:100B2000C5F8864265EB010100290ADB0021174B5D
:100B30003246009316482B460191FFF72DFF0028FF
:100B4000E6DB4FF0000C1348134A436A9D4204D879
:100B5000816AB142DCD29D42DAD11368EFF3108191
:100B600072B6D3E8CF8F5FF0010EB8F1000FF8D165
:100B7000C3E848EFB8F1000FF3D1BFF35F8F1368FC
:100B8000C3E88FCF81F3108820BFDEE7790500101E
:100B90003402002000000B406804002010B5044619
:100BA00000F084F84FF47A734FF0FF3C6FF000428E
:100BB000E4FB0301BDE81040844572EB01033CBF38
:100BC00060461146FFF78CBFF0B506460D4683B070
:100BD000EFF30584E4B2002C35D1244F3A78F9685C
:100BE00004328B6A51F82220D21AC31A934207D3D7
:100BF00020BF1F4B586AA8421FD2002003B0F0BD8F
:100C000000F054F8864265EB0101002911DB194B15
:100C10003846CDE9003432462B46FFF7BDFE011EB3
:100C200007DD134B5A6AAA4219D220BF0F48FFF7BB
:100C300017FF0F4B586AA842DFD39B6A9E4209D820
:100C4000012003B0F0BD0A4B586A8842D5D39B6A95
:100C5000B342F5D2401B18BF012003B0F0BD9B6A20
:100C60009E42E3D9AA42E1D1DFE700BF340200206F
:100C700000000B407905001010B4054B054C064AE6
:100C8000A04214BF1846581C5DF8044BFFF796BBF2
:100C9000F803002000800B40401500100346416A15
:100CA0000A46986A596A8A42FAD17047034B596AD0
:100CB0000A46986A596A9142FAD1704700000B407F
:100CC000074A536A9942FCD8994207D1044B02E083
:100CD0005A6A914202D19A6A8242F9D3704700BFA0
:100CE00000000B4000EB400C4FEA8C0C0CF1804CE8
:100CF0000CF5803CF0B51646DCF80420051FB2F573
:100D0000803F38BF4FF48032EDB238BFCCF80420BA
:100D1000012D2AD94FF40067254C0CF5405217607D
:100D200054F82020B2B9DCF80020012D82EA4612E6
:100D300002F0E0020CF5805632602AD94FF40061CF
:100D400044F820304FF480330CF500521160CCF899
:100D50000430F0BD6769B7FBF2FE0EF1010E0EEB39
:100D60004E0EBEF1030EFCD2DDE70129D2D10324E1
:100D70000CF540521460DCF80820D207FBD5DCF8F3
:100D800000200B4C82EA461202F0E0020CF580567D
:100D900032600122DCF800504D4005F0030535605B
:100DA00002FA01F1DCF808200A42FBD0C6E700BFD6
:100DB000FC030020014B53F820007047FC03002087
:100DC00070B4039D04682D0345EA03451B4B002CBA
:100DD000B3FBF1F3B2FBF3F61FDB194A194B904258
:100DE00014BF4FF480424FF40042174C1A6003F5D1
:100DF00080531A60A36832EA0303FBD1212200F575
:100E000040530433016086601A600268002AFCDAED
:100E10000822C5601A6070BC7047036803F03F0386
:100E20008B42DAD18368C3F30B03B342D5D1C368D5
:100E300003F4EE23AB42D0D1EDE700BF001BB700B7
:100E4000008005400020024000000240012300EB2A
:100E50004000800000F1804000F584104160036094
:100E6000704700BF0023DB8A002242E800F25202F2
:100E700001D4102118470421184700BF034AD2F8B3
:100E80002838002BFBD0BFF35F8F704700000E4067
:100E90000021044B044ABFF35F8F43F8041B9342C5
:100EA000F9D170470C080E402C080E4010B42F20CA
:100EB0004FF42A64054A064B06491460D060196055
:100EC0005368002BFCDA5DF8044B70470080044047
:100ED00000A0044000B0FA00704700BF08B5014808
:100EE000FFF754FA6415001038B5054C054DAC42B7
:100EF00004D254F8043B9847AC42FAD338BD00BF43
:100F0000E81400102815001010B40748074C084BCF
:100F1000084A094904601A608B6832EA0303FBD16E
:100F20005DF8044B704700BF002002407F3BEFEFAD
:100F300000300240F6FFF30300000240044BDB6C7C
:100F4000B3F5004F03D14FF48022024BDA647047AF
:100F500000001150002011504FF0E022044BD2F855
:100F6000881D0B43C2F8883D10EE3004704700BF67
:100F7000030330006FF06041044B054A1960936829
:100F8000DB4333F06043FAD1704700BF00300240CA
:100F90000000024010B545F25320FFF763FFBDE8A3
:100FA000104003460420184710B545F25320FFF7C0
:100FB00059FFBDE81040034601201847FFF73EBA2D
:100FC00010B5054B054C4FF488721846A16800F027
:100FD000DBF9A06010BD00BF0000002000ED00E0C4
:100FE000002370B52B4C82B0C4F88430FFF75EFF4D
:100FF0000122294BDA63636C012BFCD10321264AC1
:10100000244B11639C6B012CFCD102260525214643
:101010000523224A22480096FFF7D2FE21462B469E
:10102000204A21480095FFF7CBFE002204203146DC
:101030001E4BFFF757FE2146284600221C4BFFF7A8
:1010400051FE0022082011461A4BFFF74BFE0022EA
:1010500009201146174BFFF745FE002206201146D6
:10106000134BFFF73FFE0022114B07201146FFF7FD
:1010700039FE0420FFF79EFE00240F4BA3FB003532
:10108000AD0CE0B229460134FFF7E0FE062CF8D1A2
:1010900002B070BD0000014000300140002F6859CF
:1010A00000000540008C864700800540001BB7000B
:1010B00080D1F008006CDC0283DE1B4300B970476E
:1010C00000F002B910B5094B84B01C684CB103465E
:1010D00000914FF0FF3203A90548A047012004B05A
:1010E00010BD00F033F9204604B010BD2C040020E0
:1010F000BD10001000BEFDE708B5FFF7FBFF00BF05
:1011000038B5064C064DFFF7EFFEAC4204D254F85A
:10111000043B9847AC42FAD338BD00BF28150010F5
:101120002C1500100368084611461847437D2DE929
:10113000F04781460F461646002B43D0002A3BDD80
:10114000037D00204D1E014615F8012FDFF8848035
:101150000A2A01F101040ED0A6421CD02B782146A8
:10116000A3F10D03B3FA83F315F8012F5B090A2AE3
:1011700001F10104F0D1002BEED18142A1EB00017D
:1011800038441BDC02214046D9F800309847A6427B
:1011900008D02046E2E7864204DD311AD9F8003053
:1011A00038449847374417F8013CA3F10D03B3FACC
:1011B00083F35B0989F81430BDE8F087D9F8003073
:1011C0009847DFE73846D9F800301146BDE8F047C8
:1011D000184700BF301600102DE9F04782B00D46C9
:1011E000924699460746FFF761FD4FF0FF366FF0D4
:1011F00000442F4A821841F10003964274EB030128
:101200003CBF324623462B4800F06AF96B1C8046EF
:1012100003D1384600F02EF90546274B274E1C68AF
:10122000274BB9F1000F18BF1E46B4B1BAF1000F39
:101230001AD1DFF8909001E0246974B12368002B83
:10124000FAD0D9F800300BB19C42F5D120462A469D
:101250003946B0472469002CF0D1B8F1000F1FD1F6
:10126000284602B0BDE8F0874FF00A0ADFF8549034
:1012700002E02469002CF0D02368002BF9D0D9F8C3
:1012800000300BB1A342F4D12A4639462046B0477C
:10129000012220460DF107018DF807A0B047E8E7CD
:1012A000044800F019F9284602B0BDE8F08700BFF5
:1012B00040420F004C0200202404002025110010A1
:1012C0002D11001028040020F0B583B006468DF8DB
:1012D0000700FFF7EBFC4FF0FF356FF00044174AB3
:1012E000821841F10003954274EB03013CBF234691
:1012F0002A46134800F0F4F8124B07461C689CB1CC
:10130000114D01E024697CB12368002BFAD02B68D1
:101310000BB19C42F6D1204601220DF10701FFF7E7
:1013200005FF2469002CEFD117B9304603B0F0BD9A
:10133000034800F0D1F8304603B0F0BD40420F0042
:101340004C020020240400202804002038B5044664
:1013500000F090F8012305461A4620462946FFF77B
:101360003BFF084B1C682CB163682BB1984724697C
:10137000002CF9D1284638BD2469002CF4D1284628
:1013800038BD00BF24040020844641EA000313F066
:10139000030349D1403A23D30B6803604B68436091
:1013A0008B688360CB68C3600B6903614B694361E1
:1013B0008B698361CB69C3610B6A03624B6A4362C9
:1013C0008B6A8362CB6AC3620B6B03634B6B4363B1
:1013D0008B6B8363CB6BC36340304031403ADBD2CD
:1013E00030320BD30B6803604B6843608B688360BB
:1013F000CB68C36010301031103AF3D20C3205D3F1
:1014000051F8043B40F8043B043AF9D2043208D0C6
:10141000D2071CBF11F8013B00F8013B01D30B8838
:1014200003806046704700BF082A13D38B07B1D0F2
:1014300010F00303AED0C3F10403D21ADB071CBFC4
:1014400011F8013B00F8013BA4D331F8023B20F82E
:10145000023B9FE7043AD9D3013A11F8013B00F867
:10146000013BF9D20B7803704B7843708B78837013
:101470006046704720F0030110F00300C0F1000047
:1014800051F8043B00F1040C4FEACC0C6FF0000261
:101490001CBF22FA0CF213434FF0010C4CEA0C2C47
:1014A0004CEA0C4CA3EB0C0222EA030212EACC1227
:1014B00004BF51F8043B0430F4D0C2F1000102EA49
:1014C0000102B2FA82F2C2F11F0200EBD2007047B1
:1014D000F8B500BF000000005FF800F0ED0100204B
:1014E0005FF800F081010020950F0010090F001037
:1014F0003D0F0010E10F0010750F0010910E00104D
:10150000BD0F00107D0E00102D050010C10F001042
:1015100099080010D90E0010A90F0010590F0010E3
:0C1520002D0400105504001019020010EA
:10152C000A2A2A2A2050414E4943202A2A2A0A00F4
:10153C000A000000486172647761726520616C6119
:10154C00726D20256420616C726561647920636C16
:10155C0061696D6564000000486172642061737399
:10156C006572740052656C6561736500626F6F74AF
:10157C00325F77323571303830000000302E310058
:10158C00322E312E300000007069636F3200000083
:10159C0055345F4D6963726F636F6E74726F6C61FB
:1015AC00646F7265735F4750494F5F4154495649A8
:1015BC00444144455F3200004A616E20313820328C
:1015CC003032350006005250D3F0754270150010C1
:1015DC0006005250E182887F7815001006005250A8
:1015EC003ABCA9118815001006005250ABB36053D9
:1015FC008C15001006005250BBFF3CB69415001021
:10160C0006005250861C03029C1500100600525016
:10161C005422A29DC415001005005250DE65F468DA
:08162C00B41700100D0A0000C4
:0816340054FDFF7F01000000DE
:10163C00D0150010DC150010E8150010F415001082
:10164C00001600100C1600101816001024160010AE
:10165C004FF050412DE9F0410027044616461D4637
:10166C00D1F8008009E02368C3E88F7F8CF31088E1
:10167C003046294600F078F8F0B92168EFF3108C69
:10168C0072B6D1E8CF2F0123002AFAD1C1E8423F2C
:10169C00002AF6D1BFF35F8F94F904E0BEF1000F7E
:1016AC00E1DA0023226884F80480C2E88F3F8CF3CF
:1016BC0010880120BDE8F0810020BDE8F08100BF5A
:1016CC0030B501460468EFF3108C72B6D4E8CFEF56
:1016DC000125BEF1000FF9D1C4E84E5FBEF1000F39
:1016EC00F4D1BFF35F8F90F90440002C11DB002183
:1016FC000568C5E88F1F8CF310884FF0504C9CF98F
:10170C0000C0A44501D1084630BDBDE83040FFF70C
:10171C009FBF4FF05040006800230A680871C2E870
:10172C008F3F8CF31088012030BD00BF0368EFF3AE
:10173C00108272B6D3E8CFCF0121BCF1000FF9D1E2
:10174C00C3E84C1FBCF1000FF4D1BFF35F8F4FF017
:10175C00FF0C0023016880F804C0C1E88F3F82F3BE
:10176C00108840BF704700BF5FF800F0C90B001035
:10177C00100000000000000000000000000000004D
:10178C0000000000000000005802002000000000D3
:04179C000000000049
:1017A000D3DEFFFFFE010000FF01000098E9FFFF0C
:0417B000793512ABCA
:040000051000014D99
:00000001FF
